{
  "contractName": "ChainList",
  "abi": [
    {
      "constant": true,
      "inputs": [
        {
          "name": "",
          "type": "address"
        }
      ],
      "name": "users",
      "outputs": [
        {
          "name": "account",
          "type": "address"
        },
        {
          "name": "username",
          "type": "string"
        }
      ],
      "payable": false,
      "stateMutability": "view",
      "type": "function"
    },
    {
      "constant": true,
      "inputs": [
        {
          "name": "",
          "type": "uint256"
        }
      ],
      "name": "articles",
      "outputs": [
        {
          "name": "id",
          "type": "uint256"
        },
        {
          "name": "seller",
          "type": "address"
        },
        {
          "name": "buyer",
          "type": "address"
        },
        {
          "name": "amount",
          "type": "string"
        },
        {
          "name": "description",
          "type": "string"
        },
        {
          "name": "price",
          "type": "uint256"
        },
        {
          "name": "periodFrom",
          "type": "uint256"
        },
        {
          "name": "periodTo",
          "type": "uint256"
        },
        {
          "name": "createdAt",
          "type": "uint256"
        }
      ],
      "payable": false,
      "stateMutability": "view",
      "type": "function"
    },
    {
      "inputs": [],
      "payable": false,
      "stateMutability": "nonpayable",
      "type": "constructor"
    },
    {
      "anonymous": false,
      "inputs": [
        {
          "indexed": true,
          "name": "_id",
          "type": "uint256"
        },
        {
          "indexed": true,
          "name": "_seller",
          "type": "address"
        },
        {
          "indexed": false,
          "name": "_amount",
          "type": "string"
        },
        {
          "indexed": false,
          "name": "_price",
          "type": "uint256"
        },
        {
          "indexed": false,
          "name": "_periodFrom",
          "type": "uint256"
        },
        {
          "indexed": false,
          "name": "_periodTo",
          "type": "uint256"
        }
      ],
      "name": "LogSellArticle",
      "type": "event"
    },
    {
      "anonymous": false,
      "inputs": [
        {
          "indexed": true,
          "name": "_id",
          "type": "uint256"
        },
        {
          "indexed": true,
          "name": "_seller",
          "type": "address"
        },
        {
          "indexed": true,
          "name": "_buyer",
          "type": "address"
        },
        {
          "indexed": false,
          "name": "_amount",
          "type": "string"
        },
        {
          "indexed": false,
          "name": "_price",
          "type": "uint256"
        }
      ],
      "name": "LogBuyArticle",
      "type": "event"
    },
    {
      "anonymous": false,
      "inputs": [
        {
          "indexed": false,
          "name": "valid",
          "type": "bool"
        },
        {
          "indexed": false,
          "name": "periodTo",
          "type": "uint256"
        }
      ],
      "name": "LogPeriodCheck",
      "type": "event"
    },
    {
      "anonymous": false,
      "inputs": [
        {
          "components": [
            {
              "name": "account",
              "type": "address"
            },
            {
              "name": "username",
              "type": "string"
            }
          ],
          "indexed": false,
          "name": "users",
          "type": "tuple"
        }
      ],
      "name": "LogUsers",
      "type": "event"
    },
    {
      "anonymous": false,
      "inputs": [
        {
          "indexed": true,
          "name": "_seller",
          "type": "address"
        },
        {
          "indexed": false,
          "name": "balanceSeller",
          "type": "uint256"
        },
        {
          "indexed": true,
          "name": "_buyer",
          "type": "address"
        },
        {
          "indexed": false,
          "name": "balanceBuyer",
          "type": "uint256"
        }
      ],
      "name": "LogBalances",
      "type": "event"
    },
    {
      "constant": false,
      "inputs": [
        {
          "name": "amount",
          "type": "string"
        },
        {
          "name": "_description",
          "type": "string"
        },
        {
          "name": "_price",
          "type": "uint256"
        },
        {
          "name": "_periodFrom",
          "type": "uint256"
        },
        {
          "name": "_periodTo",
          "type": "uint256"
        }
      ],
      "name": "sellArticle",
      "outputs": [],
      "payable": false,
      "stateMutability": "nonpayable",
      "type": "function"
    },
    {
      "constant": true,
      "inputs": [],
      "name": "getNumberOfArticles",
      "outputs": [
        {
          "name": "",
          "type": "uint256"
        }
      ],
      "payable": false,
      "stateMutability": "view",
      "type": "function"
    },
    {
      "constant": true,
      "inputs": [],
      "name": "getArticlesProducts",
      "outputs": [
        {
          "name": "",
          "type": "uint256[]"
        }
      ],
      "payable": false,
      "stateMutability": "view",
      "type": "function"
    },
    {
      "constant": false,
      "inputs": [
        {
          "name": "_id",
          "type": "uint256"
        }
      ],
      "name": "buyArticle",
      "outputs": [],
      "payable": true,
      "stateMutability": "payable",
      "type": "function"
    }
  ],
  "bytecode": "0x60806040523480156200001157600080fd5b506064600260003273ffffffffffffffffffffffffffffffffffffffff1673ffffffffffffffffffffffffffffffffffffffff1681526020019081526020016000208190555060408051908101604052803273ffffffffffffffffffffffffffffffffffffffff1681526020016040805190810160405280600881526020017f4163636f756e7431000000000000000000000000000000000000000000000000815250815250600160003273ffffffffffffffffffffffffffffffffffffffff1673ffffffffffffffffffffffffffffffffffffffff16815260200190815260200160002060008201518160000160006101000a81548173ffffffffffffffffffffffffffffffffffffffff021916908373ffffffffffffffffffffffffffffffffffffffff16021790555060208201518160010190805190602001906200015b92919062000165565b5090505062000214565b828054600181600116156101000203166002900490600052602060002090601f016020900481019282601f10620001a857805160ff1916838001178555620001d9565b82800160010185558215620001d9579182015b82811115620001d8578251825591602001919060010190620001bb565b5b509050620001e89190620001ec565b5090565b6200021191905b808211156200020d576000816000905550600101620001f3565b5090565b90565b61134280620002246000396000f300608060405260043610610078576000357c0100000000000000000000000000000000000000000000000000000000900463ffffffff1680630ca5d7251461007d5780631cc4baa8146100e957806389da85d314610109578063a87430ba14610134578063c671991014610223578063edcfafe6146102f0575b600080fd5b34801561008957600080fd5b5061009261048b565b6040518080602001828103825283818151815260200191508051906020019060200280838360005b838110156100d55780820151818401526020810190506100ba565b505050509050019250505060405180910390f35b610107600480360381019080803590602001909291905050506105af565b005b34801561011557600080fd5b5061011e6108c1565b6040518082815260200191505060405180910390f35b34801561014057600080fd5b50610175600480360381019080803573ffffffffffffffffffffffffffffffffffffffff1690602001909291905050506108cb565b604051808373ffffffffffffffffffffffffffffffffffffffff1673ffffffffffffffffffffffffffffffffffffffff16815260200180602001828103825283818151815260200191508051906020019080838360005b838110156101e75780820151818401526020810190506101cc565b50505050905090810190601f1680156102145780820380516001836020036101000a031916815260200191505b50935050505060405180910390f35b34801561022f57600080fd5b506102ee600480360381019080803590602001908201803590602001908080601f0160208091040260200160405190810160405280939291908181526020018383808284378201915050505050509192919290803590602001908201803590602001908080601f01602080910402602001604051908101604052809392919081815260200183838082843782019150505050505091929192908035906020019092919080359060200190929190803590602001909291905050506109a7565b005b3480156102fc57600080fd5b5061031b60048036038101908080359060200190929190505050610d8b565b604051808a81526020018973ffffffffffffffffffffffffffffffffffffffff1673ffffffffffffffffffffffffffffffffffffffff1681526020018873ffffffffffffffffffffffffffffffffffffffff1673ffffffffffffffffffffffffffffffffffffffff1681526020018060200180602001878152602001868152602001858152602001848152602001838103835289818151815260200191508051906020019080838360005b838110156103e15780820151818401526020810190506103c6565b50505050905090810190601f16801561040e5780820380516001836020036101000a031916815260200191505b50838103825288818151815260200191508051906020019080838360005b8381101561044757808201518184015260208101905061042c565b50505050905090810190601f1680156104745780820380516001836020036101000a031916815260200191505b509b50505050505050505050505060405180910390f35b606080600080606060006003546040519080825280602002602001820160405280156104c65781602001602082028038833980820191505090505b50945060009350600192505b600354831115156105245760008084815260200190815260200160002060000154858581518110151561050157fe5b9060200190602002018181525050838060010194505082806001019350506104d2565b836040519080825280602002602001820160405280156105535781602001602082028038833980820191505090505b509150600090505b838110156105a457848181518110151561057157fe5b90602001906020020151828281518110151561058957fe5b9060200190602002018181525050808060010191505061055b565b819550505050505090565b6000806003541115156105c157600080fd5b6000821180156105d357506003548211155b15156105de57600080fd5b600080838152602001908152602001600020905060008160020160009054906101000a900473ffffffffffffffffffffffffffffffffffffffff1673ffffffffffffffffffffffffffffffffffffffff1614151561063b57600080fd5b8060010160009054906101000a900473ffffffffffffffffffffffffffffffffffffffff1673ffffffffffffffffffffffffffffffffffffffff163373ffffffffffffffffffffffffffffffffffffffff161415151561069a57600080fd5b8060050154341415156106ac57600080fd5b80600701546103e84202116106c25760016106c5565b60005b15156106d057600080fd5b338160020160006101000a81548173ffffffffffffffffffffffffffffffffffffffff021916908373ffffffffffffffffffffffffffffffffffffffff1602179055508060010160009054906101000a900473ffffffffffffffffffffffffffffffffffffffff1673ffffffffffffffffffffffffffffffffffffffff166108fc349081150290604051600060405180830381858888f1935050505015801561077d573d6000803e3d6000fd5b508060020160009054906101000a900473ffffffffffffffffffffffffffffffffffffffff1673ffffffffffffffffffffffffffffffffffffffff168160010160009054906101000a900473ffffffffffffffffffffffffffffffffffffffff1673ffffffffffffffffffffffffffffffffffffffff16837f5d28bc06e6f0c45405abfe77bd77236c767f9bd9d044ae2d954a415a2b4823e084600301856005015460405180806020018381526020018281038252848181546001816001161561010002031660029004815260200191508054600181600116156101000203166002900480156108ae5780601f10610883576101008083540402835291602001916108ae565b820191906000526020600020905b81548152906001019060200180831161089157829003601f168201915b5050935050505060405180910390a45050565b6000600354905090565b60016020528060005260406000206000915090508060000160009054906101000a900473ffffffffffffffffffffffffffffffffffffffff1690806001018054600181600116156101000203166002900480601f01602080910402602001604051908101604052809291908181526020018280546001816001161561010002031660029004801561099d5780601f106109725761010080835404028352916020019161099d565b820191906000526020600020905b81548152906001019060200180831161098057829003601f168201915b5050505050905082565b6000806003600081548092919060010191905055504291506101206040519081016040528060035481526020013373ffffffffffffffffffffffffffffffffffffffff168152602001600073ffffffffffffffffffffffffffffffffffffffff1681526020018881526020018781526020018681526020018581526020018481526020018381525060008060035481526020019081526020016000206000820151816000015560208201518160010160006101000a81548173ffffffffffffffffffffffffffffffffffffffff021916908373ffffffffffffffffffffffffffffffffffffffff16021790555060408201518160020160006101000a81548173ffffffffffffffffffffffffffffffffffffffff021916908373ffffffffffffffffffffffffffffffffffffffff1602179055506060820151816003019080519060200190610af7929190611271565b506080820151816004019080519060200190610b14929190611271565b5060a0820151816005015560c0820151816006015560e082015181600701556101008201518160080155905050826103e8420211610b53576001610b56565b60005b90507f45150a12bed85bb2173fd2e976c859ea6f7b0af4e50277f501219e3c01d8a3a9814260405180831515151581526020018281526020019250505060405180910390a160408051908101604052803373ffffffffffffffffffffffffffffffffffffffff168152602001610c0b6040805190810160405280600481526020017f5573657200000000000000000000000000000000000000000000000000000000815250610c06600354610f49565b6110a0565b815250600160003373ffffffffffffffffffffffffffffffffffffffff1673ffffffffffffffffffffffffffffffffffffffff16815260200190815260200160002060008201518160000160006101000a81548173ffffffffffffffffffffffffffffffffffffffff021916908373ffffffffffffffffffffffffffffffffffffffff1602179055506020820151816001019080519060200190610cb0929190611271565b509050503373ffffffffffffffffffffffffffffffffffffffff166003547f4afc5b04465430594c940e29527b9aec21360c1e0228f982123494ca2339b3ec898888886040518080602001858152602001848152602001838152602001828103825286818151815260200191508051906020019080838360005b83811015610d45578082015181840152602081019050610d2a565b50505050905090810190601f168015610d725780820380516001836020036101000a031916815260200191505b509550505050505060405180910390a350505050505050565b60006020528060005260406000206000915090508060000154908060010160009054906101000a900473ffffffffffffffffffffffffffffffffffffffff16908060020160009054906101000a900473ffffffffffffffffffffffffffffffffffffffff1690806003018054600181600116156101000203166002900480601f016020809104026020016040519081016040528092919081815260200182805460018160011615610100020316600290048015610e895780601f10610e5e57610100808354040283529160200191610e89565b820191906000526020600020905b815481529060010190602001808311610e6c57829003601f168201915b505050505090806004018054600181600116156101000203166002900480601f016020809104026020016040519081016040528092919081815260200182805460018160011615610100020316600290048015610f275780601f10610efc57610100808354040283529160200191610f27565b820191906000526020600020905b815481529060010190602001808311610f0a57829003601f168201915b5050505050908060050154908060060154908060070154908060080154905089565b60606000806060600080861415610f97576040805190810160405280600181526020017f30000000000000000000000000000000000000000000000000000000000000008152509450611097565b8593505b600084141515610fc1578280600101935050600a84811515610fb957fe5b049350610f9b565b826040519080825280601f01601f191660200182016040528015610ff45781602001602082028038833980820191505090505b5091506001830390505b60008614151561109357600a8681151561101457fe5b066030017f01000000000000000000000000000000000000000000000000000000000000000282828060019003935081518110151561104f57fe5b9060200101907effffffffffffffffffffffffffffffffffffffffffffffffffffffffffffff1916908160001a905350600a8681151561108b57fe5b049550610ffe565b8194505b50505050919050565b606080606080606060008088955087945084518651016040519080825280601f01601f1916602001820160405280156110e85781602001602082028038833980820191505090505b50935083925060009150600090505b85518110156111aa57858181518110151561110e57fe5b9060200101517f010000000000000000000000000000000000000000000000000000000000000090047f010000000000000000000000000000000000000000000000000000000000000002838380600101945081518110151561116d57fe5b9060200101907effffffffffffffffffffffffffffffffffffffffffffffffffffffffffffff1916908160001a90535080806001019150506110f7565b600090505b84518110156112625784818151811015156111c657fe5b9060200101517f010000000000000000000000000000000000000000000000000000000000000090047f010000000000000000000000000000000000000000000000000000000000000002838380600101945081518110151561122557fe5b9060200101907effffffffffffffffffffffffffffffffffffffffffffffffffffffffffffff1916908160001a90535080806001019150506111af565b82965050505050505092915050565b828054600181600116156101000203166002900490600052602060002090601f016020900481019282601f106112b257805160ff19168380011785556112e0565b828001600101855582156112e0579182015b828111156112df5782518255916020019190600101906112c4565b5b5090506112ed91906112f1565b5090565b61131391905b8082111561130f5760008160009055506001016112f7565b5090565b905600a165627a7a723058204caa7c930ac8132e44282042a6697e04d3ff3fc3dd38c66ceb32035c3dda29aa0029",
  "source": "pragma solidity ^0.4.18;\n\nimport {HelperLib} from \"./HelperLib.sol\";\n\ncontract ChainList {\n\n  // custom types\n  struct Article {\n    uint id;\n    address seller;\n    address buyer;\n    string amount;\n    string description;\n    uint price;\n    uint periodFrom;\n    uint periodTo;\n    uint createdAt;\n  }\n\n  // custom types\n  struct User {\n    address account;\n    string username;\n  }\n\n  // state variables\n  mapping(uint => Article) public articles;\n  mapping(address => User) public users;\n\n  mapping(address => uint) balances;\n\n  constructor() public {\n    balances[tx.origin] = 100;\n    users[tx.origin] = User(tx.origin, 'Account1');\n  }\n\n  uint articleCounter;\n\n  // events\n  event LogSellArticle(\n    uint indexed _id,\n    address indexed _seller,\n    string _amount,\n    uint _price,\n    uint _periodFrom,\n    uint _periodTo\n  );\n\n  event LogBuyArticle(\n    uint indexed _id,\n    address indexed _seller,\n    address indexed _buyer,\n    string _amount,\n    uint _price\n  );\n\n  event LogPeriodCheck(\n    bool valid,\n    uint periodTo\n  );\n\n  event LogUsers(\n    User users\n  );\n\n  event LogBalances(\n    address indexed _seller,\n    uint balanceSeller,\n    address indexed _buyer,\n    uint balanceBuyer\n  );\n\n  // sell an article\n  function sellArticle(string amount, string _description, uint _price, uint _periodFrom, uint _periodTo) public {\n    // a new article\n    articleCounter++;\n    uint createdAt = now;\n    // store this article\n    articles[articleCounter] = Article(\n      articleCounter,\n      msg.sender,\n      0x0,\n      amount,\n      _description,\n      _price,\n      _periodFrom,\n      _periodTo,\n      createdAt\n    );\n\n    bool isValid = (now * 1000) > _periodTo ? false : true;\n    emit LogPeriodCheck(isValid, now);\n\n    users[msg.sender] = User(msg.sender, HelperLib.strConcat('User', HelperLib.uint2str(articleCounter)));\n\n    emit LogSellArticle(articleCounter, msg.sender, amount, _price, _periodFrom, _periodTo);\n    //    emit LogUsers(users[msg.sender]);\n  }\n\n  // fetch the number of articles in the contract\n  function getNumberOfArticles() public view returns (uint) {\n    return articleCounter;\n  }\n\n  // fetch and return all article IDs for products\n  function getArticlesProducts() public view returns (uint[]) {\n    // prepare output array\n    uint[] memory articleIds = new uint[](articleCounter);\n\n    uint numberOfArticles = 0;\n    // iterate over articles\n    for (uint i = 1; i <= articleCounter; i++) {\n      // keep the ID if the article is still for sale\n      articleIds[numberOfArticles] = articles[i].id;\n      numberOfArticles++;\n    }\n\n    // copy the articleIds array into a smaller array\n    uint[] memory artProducts = new uint[](numberOfArticles);\n    for (uint j = 0; j < numberOfArticles; j++) {\n      artProducts[j] = articleIds[j];\n    }\n    return artProducts;\n  }\n\n  // buy an article\n  function buyArticle(uint _id) payable public {\n\n    require(articleCounter > 0);\n\n    // we check that the article exists\n    require(_id > 0 && _id <= articleCounter);\n\n    // we retrieve the article\n    Article storage article = articles[_id];\n\n    // we check that the article has not been sold yet\n    require(article.buyer == 0x0);\n\n    // we don't allow the seller to buy his own article\n    require(msg.sender != article.seller);\n\n    // we check that the value sent corresponds to the price of the article\n    require(msg.value == article.price);\n\n    // we check the availability period if expired or not\n    require(((now * 1000) > article.periodTo ? false : true));\n\n    // keep buyer's information\n    article.buyer = msg.sender;\n\n    // the buyer can pay the seller\n    article.seller.transfer(msg.value);\n\n    // trigger the event\n    emit LogBuyArticle(_id, article.seller, article.buyer, article.amount, article.price);\n  }\n\n}\n",
  "sourcePath": "/Users/tempuser/Documents/Mikidal/dapp_web/contracts/ChainList.sol",
  "compiler": {
    "name": "solc",
    "version": "0.4.23+commit.124ca40d.Emscripten.clang"
  },
  "schemaVersion": "2.0.0",
  "updatedAt": "2018-06-05T06:25:38.636Z"
}